:100000000C9475000C949D000C949D000C949D0024
:100010000C949D000C949D000C949D000C949D00EC
:100020000C949D000C949D000C949D000C949D00DC
:100030000C949D000C949D000C949D000C949D00CC
:100040000C94D9060C949D000C9449070C9423073A
:100050000C949D000C949D000C949D000C949D00AC
:100060000C949D000C949D00CDCCCC3D0AD7233C34
:1000700017B7D13877CC2B329595E6241FB14F0AAC
:10008000000020410000C84200401C4620BCBE4C7D
:10009000CA1B0E5AAEC59D74000000002400270044
:1000A0002A0000000000250028002B00040404049E
:1000B0000404040402020202020203030303030312
:1000C00001020408102040800102040810200102EF
:1000D00004081020000000080002010000030407CB
:1000E0000000000000000000CD0911241FBECFEF6A
:1000F000D8E0DEBFCDBF22E0A6E5B1E001C01D9291
:10010000AE30B207E1F711E0A0E0B1E0ECE4FCE1D1
:1001100002C005900D92A635B107D9F710E0C5E7EA
:10012000D0E004C02197FE010E942C0CC437D107F7
:10013000C9F70E947B070C94240E0C940000EEED8E
:10014000F0E02491EAECF0E09491E6EBF0E0E49149
:10015000EE23C9F0222339F0233001F1A8F4213035
:1001600019F1223029F1F0E0EE0FFF1FEE55FF4F9D
:10017000A591B4912FB7F894EC91811126C0909578
:100180009E239C932FBF08952730A9F02830C9F0F3
:10019000243049F7209180002F7D03C020918000FA
:1001A0002F7720938000DFCF24B52F7724BDDBCFBE
:1001B00024B52F7DFBCF2091B0002F772093B00086
:1001C000D2CF2091B0002F7DF9CF9E2BDACF3FB751
:1001D000F8948091060290910702A0910802B091D4
:1001E000090226B5A89B05C02F3F19F00196A11D55
:1001F000B11D3FBFBA2FA92F982F8827BC01CD0171
:10020000620F711D811D911D42E0660F771F881FCF
:10021000991F4A95D1F70895AF92BF92CF92DF927E
:10022000EF92FF920F931F93CF93DF936C017B01AB
:100230008B01040F151FEB015E01AE18BF08C0173C
:10024000D10759F06991D601ED91FC910190F081AF
:10025000E02DC6010995892B79F7C501DF91CF9172
:100260001F910F91FF90EF90DF90CF90BF90AF90D4
:100270000895FC01538D448D252F30E0842F90E0AC
:10028000821B930B541710F0CF9608950197089591
:10029000FC01918D828D981761F0A28DAE0FBF2F5A
:1002A000B11D5D968C91928D9F5F9F73928F90E0B0
:1002B00008958FEF9FEF0895FC01918D828D98171F
:1002C00031F0828DE80FF11D858D90E008958FEF5C
:1002D0009FEF0895FC01918D228D892F90E0805C25
:1002E0009F4F821B91098F739927089586E591E0AE
:1002F0000E946A0121E0892B09F420E0822F0895F1
:1003000080E090E0892B29F00E94760181110C9405
:1003100000000895FC01A48DA80FB92FB11DA35AA8
:10032000BF4F2C91848D90E001968F739927848F15
:10033000A689B7892C93A089B1898C918370806438
:100340008C93938D848D981306C00288F389E02DD9
:1003500080818F7D80830895EF92FF920F931F938A
:10036000CF93DF93EC0181E0888F9B8D8C8D981368
:100370001AC0E889F989808185FF15C09FB7F89474
:10038000EE89FF896083E889F989808183708064C0
:1003900080839FBF81E090E0DF91CF911F910F910B
:1003A000FF90EF900895F62E0B8D10E00F5F1F4F1A
:1003B0000F731127E02E8C8D8E110CC00FB607FC29
:1003C000FACFE889F989808185FFF5CFCE010E94B7
:1003D0008A01F1CFEB8DEC0FFD2FF11DE35AFF4F9A
:1003E000F0829FB7F8940B8FEA89FB898081806245
:1003F000CFCFCF93DF93EC01888D8823B9F0AA8902
:10040000BB89E889F9898C9185FD03C0808186FDCF
:100410000DC00FB607FCF7CF8C9185FFF2CF80811E
:1004200085FFEDCFCE010E948A01E9CFDF91CF9108
:100430000895FC012581222339F0F8E02F02900174
:100440001124820F931F089590E080E00895EF92A9
:10045000FF920F931F93CF93DF93EC018C81982F22
:100460009F7739F4807880628C83198218821B828E
:100470001A828C8185FD09C080E090E0DF91CF91E8
:100480001F910F91FF90EF90089561157105A1F3F1
:100490007A018B0188819981009749F1DC011696D8
:1004A000ED91FC91D8010D900020E9F71197AD0175
:1004B000401B510B30E020E0309749F0DF010D90F8
:1004C0000020E9F79D01215031092E1B3F0B241715
:1004D000350751F4D801200F311F2A173B0771F25D
:1004E0005D9141915417C9F30E941902D5CFD701EC
:1004F0001496ED91FC91159712968D919C911397FE
:100500000896E817F90720F481E018968C93B4CF89
:1005100038971596FC93EE931497309709F4ACCF67
:10052000AA81BB81109791F0CF018A1B9B0B23E01E
:10053000959587952A95E1F715968C93FB83EA8329
:100540001582148217830683CF0198CFF983E8833D
:10055000F5CFCF93DF93EC01FB01309779F0DC010D
:100560000D900020E9F71197A81BB90B94819078A2
:1005700094609483D183C083B383A283DF91CF91AE
:1005800008950F931F93CF93DF93EC018881998196
:10059000009759F02A813B812617370730F081E018
:1005A000DF91CF911F910F9108958B016F5F7F4F66
:1005B0000E94570D009759F0998388831B830A8303
:1005C0002C813D81232B59F7FC011082E8CF80E07C
:1005D000E7CFCF92DF92EF92FF920F931F93CF93CB
:1005E000DF938C01DC019296ED91FC91E80FF91FED
:1005F00012826C01B2E0CB0ED11CC114D10449F1BE
:10060000F60101900020E9F73197EC19FD09F1F0AE
:10061000DC01ED90FC90D7011496CD91DC91CE0FCA
:10062000DF1FBE01C7010E94C102882391F0F701BC
:100630002081318184819581B601820F931F0E94B0
:100640001D0ED7011596DC93CE931497F80113A2D3
:1006500012A2D80192968D919C91DF91CF911F911A
:100660000F91FF90EF90DF90CF9008951F93CF935D
:10067000DF93EC01162F8AA19BA101968097B8F415
:100680008AA19BA19C012F5F3F4F3BA32AA38C0F04
:100690009D1FFC01128321E030E08CA19DA1820FFF
:1006A000931F9DA38CA3DF91CF911F910895CE013D
:1006B0000E94E902892B21F330E020E0EECFBF92C7
:1006C000CF92DF92EF92FF920F931F93CF93DF931E
:1006D000EC016A018B017B01E40EF51EE016F106C8
:1006E000D1F0F801B1908F018AA19BA1019680976A
:1006F00060F48AA19BA19C012F5F3F4F3BA32AA3DB
:100700008C0F9D1FFC01B282E9CFCE010E94E9024D
:10071000892B79F3E3CF4CA15DA14C0D5D1D5DA349
:100720004CA3DF91CF911F910F91FF90EF90DF903D
:10073000CF90BF9008958F929F92AF92BF92CF9229
:10074000DF92EF92FF920F931F93CF93DF93CDB77A
:10075000DEB766970FB6F894DEBF0FBECDBF6C0153
:100760008E01095E1F4F78018AE0882E912CA12C02
:10077000B12CCB01BA01A50194010E940A0C942F5F
:10078000852F605DF80162938F01A901692F782F91
:10079000411551056105710561F7A7014E1B5F0BFE
:1007A000BF01C6010E945F0366960FB6F894DEBFD4
:1007B0000FBECDBFDF91CF911F910F91FF90EF90B2
:1007C000DF90CF90BF90AF909F908F900895FB01E6
:1007D00001900020E9F73197AF01461B570B0C94AD
:1007E0005F031F93CF93DF93E8E1F1E012811123C0
:1007F00079F0329621816213F9CFEC016CE50E9409
:100800003603612FCE01DF91CF911F910C943603F7
:100810006111F9CF69E271E0DF91CF911F910C94E2
:10082000E7032F923F924F925F926F927F928F9247
:100830009F92AF92BF92CF92DF92EF92FF920F936F
:100840001F93CF93DF93CDB7DEB76C970FB6F894B5
:10085000DEBF0FBECDBF8C011B01DC0114968C9155
:1008600014978F77863009F499C268F58230A0F129
:100870001296ED90FC901397CC901196DC908430FA
:1008800008F05DC2A701B601C1010E945F03F1013A
:1008900084A195A16C960FB6F894DEBF0FBECDBFB4
:1008A000DF91CF911F910F91FF90EF90DF90CF904C
:1008B000BF90AF909F908F907F906F905F904F9080
:1008C0003F902F9008958C3069F160F4883009F4DE
:1008D00060C28A3009F446C260E371E0C1010E943F
:1008E000E703ECC1803209F4F3C18034A9F76BE56A
:1008F000C1010E943603F801008111810115110523
:1009000009F4E1C1B101C8010E941104C8010E94AB
:1009100019028C01892B09F4D6C16CE2C1010E9435
:100920003603ECCFF801C080D180E280F380A701CC
:100930009601C701B6010E94FA098111CDCF20E0CE
:1009400030E0A901C701B6010E94FA09882379F0B5
:10095000A7019601C701B6010E94560B9B01AC018D
:10096000C701B6010E94FA09882309F4B5CF20E037
:1009700030E0A901C701B6010E94FA0987FF08C04B
:100980006DE2C1010E943603F7FAF094F7F8F09493
:1009900020E836E948E15BE4C701B6010E94F10BAB
:1009A00087FD88C074E1A72EB12C00E210E0188EFC
:1009B0001F8AF501E058FF4F6591759185919491DB
:1009C000A70196010E94FA0918169CF0F501E85952
:1009D000FF4F2591359145915491C701B6010E9471
:1009E000600A6B017C012F89388D200F311F388FF1
:1009F0002F8B1595079534E0A31AB1088CEFA81634
:100A00008FEFB806B1F655245A9420E030E0A901E2
:100A1000C701B6010E94F10B18160CF052C02CEA67
:100A200035EC47E257E3C701B6010E94FA091816F0
:100A30000CF447C0A52DB4E0AB02C0011124B12CC9
:100A4000A12CFC01E859FF4F3F019C0120583F4F6A
:100A500049013FEF531609F434C0F301EA0DFB1DC1
:100A6000659175918591949120E030E040E251E4E8
:100A70000E94600AA70196010E94F10B18169CF4CF
:100A8000F401EA0DFB1D2591359145915491C70163
:100A9000B6010E94600A6B017C018F89988D801BD2
:100AA000910B988F8F8B159507955A9494E0A91AFE
:100AB000B108CFCF00E210E055E0552E188E1F8A06
:100AC000A4CFC701B6010E94C20B4B015C012B01F0
:100AD0003C0106E080E492E4AFE0B0E0898F9A8FB9
:100AE000AB8FBC8F102F01509AE04916510461045E
:100AF0007104C8F0698D7A8D8B8D9C8D2AE030E071
:100B000040E050E00E940A0C298F3A8F4B8F5C8F97
:100B1000C301B2012AE030E040E050E00E940A0C3C
:100B200029013A01DFCFC501B4010E94FF099B01F1
:100B3000AC01C701B6010E94550B6B017C01698DA8
:100B40007A8D8B8D9C8D0E94FF099B01AC01C701A2
:100B5000B6010E94600A2B013C010E94C20B6B018E
:100B60007C010E94FF099B01AC01C301B2010E94FC
:100B7000550B9B01AC010E94560B0E94C20BC60E86
:100B8000D71EE81EF91E898D9A8DAB8DBC8DC816B7
:100B9000D906EA06FB06D8F09FEF891A990AA90A36
:100BA000B90AAF89B88DAB2B39F1BAE08B16910435
:100BB000A104B10408F1EF89F88D3196F88FEF8B1D
:100BC000C12CD12C7601812C912C540183942AE0E4
:100BD000422E512C612C712CC701B601A301920148
:100BE0000E940A0C672B682B692B51F4111644F4F0
:100BF00069017A011150F0CFC12CD12C7601E7CFD9
:100C0000B501A401C1010E949B03112371F14E01A2
:100C1000F1E18F0E911C012F54019AE0492E512CC5
:100C2000612C712C015068F0C701B601A30192013B
:100C30000E940A0C605DD4016E934D0169017A0136
:100C4000F1CF812F90E0BC0160957095F501E81B14
:100C5000F90B31978EE2808344275527461B570BAB
:100C60006A0D7B1DC1010E945F03EF89F88DEF2B98
:100C700029F165E6C1010E9436030F89188D17FF1F
:100C800007C06DE2C1010E9436031195019511095B
:100C9000FE0177969F018AE0E82EF12CC801B7018A
:100CA0000E94F60B805D82938B01672BB9F7A90137
:100CB0004E1B5F0BBF01C1010E945F03D1019496DF
:100CC0008D919C91E7CD6DE5C1010E943603F6CF71
:100CD0006BE7C1010E943603F80100811181011503
:100CE000110559F1D8011696CC9016971796DC90FD
:100CF00062E2C1010E9436037601F70161917F0132
:100D0000662321F0C1010E94F103F7CF62E2C10125
:100D10000E9436036AE3C1010E943603B101C80193
:100D20000E941104C8010E9419028C01892B29F02C
:100D30006CE2C1010E943603D2CF6DE7C5CF62E2FB
:100D4000C1010E9436038601E00EF11EE016F10695
:100D500039F0F80161918F01C1010E94F103F6CFD2
:100D600062E2B2CFCD90DD90ED90FC90B701A6018C
:100D7000F7FE0BC06DE2C1010E94360344275527E0
:100D8000BA014C195D096E097F09C1010E949B03DC
:100D90007ECD4D915D916D917C91F7CF8C9165E306
:100DA00071E0811102C06AE371E0C1010E94E703B2
:100DB0006ECD1F920F920FB60F9211242F933F9377
:100DC0008F939F93AF93BF93809102029091030200
:100DD000A0910402B09105023091010223E0230F9B
:100DE0002D3758F50196A11DB11D20930102809366
:100DF000020290930302A0930402B0930502809133
:100E0000060290910702A0910802B0910902019692
:100E1000A11DB11D8093060290930702A0930802C2
:100E2000B0930902BF91AF919F918F913F912F9104
:100E30000F900FBE0F901F90189526E8230F029673
:100E4000A11DB11DD2CF1F920F920FB60F92112488
:100E50002F933F934F935F936F937F938F939F93C2
:100E6000AF93BF93EF93FF9386E591E00E948A01D1
:100E7000FF91EF91BF91AF919F918F917F916F9172
:100E80005F914F913F912F910F900FBE0F901F9048
:100E900018951F920F920FB60F9211242F938F93D4
:100EA0009F93EF93FF93E0916601F091670180813A
:100EB000E0916C01F0916D0182FD1BC090818091E9
:100EC0006F018F5F8F7320917001821741F0E09165
:100ED0006F01F0E0EA5AFE4F958F80936F01FF910A
:100EE000EF919F918F912F910F900FBE0F901F90B8
:100EF00018958081F4CFCF93DF93CDB7DEB7CE5274
:100F0000D1400FB6F894DEBF0FBECDBF789484B544
:100F1000826084BD84B5816084BD85B5826085BDF5
:100F200085B5816085BD80916E00816080936E0083
:100F30001092810080918100826080938100809175
:100F40008100816080938100809180008160809326
:100F500080008091B10084608093B1008091B000E6
:100F600081608093B00080917A00846080937A00E1
:100F700080917A00826080937A0080917A0081600B
:100F800080937A0080917A00806880937A00109232
:100F9000C100E0916601F091670182E08083E091F9
:100FA0006201F09163011082E0916401F0916501AA
:100FB0008FEC808310926E01E0916A01F0916B01D9
:100FC00086E08083E0916801F09169018081806111
:100FD0008083E0916801F09169018081886080835D
:100FE000E0916801F0916901808180688083E091DF
:100FF0006801F091690180818F7D8083EAECF0E0E7
:101000002491E6EBF0E08491882399F090E0880F3A
:10101000991FFC01E856FF4FA591B491FC01EE55D4
:10102000FF4F859194918FB7F894EC91E22BEC935C
:101030008FBFE9ECF0E02491E5EBF0E084918823A8
:10104000C9F090E0880F991FFC01E856FF4F4591C9
:101050005491FC01EE55FF4FA591B4919FB7F894C0
:10106000FA0180812095822380838C91E22FE823EE
:10107000EC939FBF6E01FFE0CF0ED11C7E0123E7F2
:10108000E20EF11C8E01075D1E4F90E0292E90E0CC
:10109000392E80E00E949F0083E090E00197F1F7F5
:1010A00081E00E949F0083E290E00197F1F780E0E9
:1010B0000E949F001092FD011092FE011092FF010C
:1010C000109200021092FC011092FB018091FB0132
:1010D0009091FC0101979093FC018093FB01892B77
:1010E00061F0199BF3CF0E94E7006093F7017093C2
:1010F000F8018093F9019093FA018091FB0190919E
:10110000FC0101979093FC018093FB01892BD1F0A6
:101110001999F3CF0E94E7008090F7019090F801B1
:10112000A090F901B090FA01681979098A099B0920
:101130000E94FF096093FD017093FE018093FF01FF
:101140009093000220E030E040E05FE36091FD0119
:101150007091FE018091FF01909100020E94600A4F
:1011600024E037EE4CE05DE30E94600A4B015C0135
:101170008092F3019092F401A092F501B092F601F1
:10118000DA82C982DC82CB82FE82ED82F886EF822F
:1011900019861E8620E030E048EC53E40E94F10BF3
:1011A00018160CF0CAC0AE014F5F5F4F60E471E0EB
:1011B000CE010A960E942702BC0189E491E00E94B8
:1011C000A902F80111821082138212821582148200
:1011D00070E060E0C8010E94C102F8012081318105
:1011E0008111D3C02115310519F0C9010E94CE0C1F
:1011F000F801118210821582148213821282CB5F51
:10120000DE4F19830883C550D140C95DDE4F198276
:101210001882C752D14084E2FE01EB5FFE4FDE012F
:10122000AF51BF4F01900D928A95E1F784E2FE0124
:10123000EF51FF4FDE01A354BF4F01900D928A95ED
:10124000E1F784E2FE01E354FF4FDE01A756BF4FF2
:1012500001900D928A95E1F784E2FE01E756FF4F77
:10126000D70101900D928A95E1F7F70115A214A21A
:10127000CE0187569F4F0E94E902CE0183549F4FB3
:101280000E94E902B701CE010A960E941104C7012B
:101290000E94E902CE018F519F4F0E94E902CE01C8
:1012A0008B5F9E4F0E94E902F80144815581608165
:1012B000718186E591E00E940C0142E050E063E517
:1012C00071E086E591E00E940C010E94E7004B016D
:1012D0005C0188EE482E83E0582E612C712C0E9410
:1012E000E700681979098A099B09683E73408105FE
:1012F0009105A8F3F1E04F1A51086108710828EE32
:10130000820E23E0921EA11CB11C41145104610401
:10131000710429F7F80180819181009711F00E94F2
:10132000CE0C2114310409F4B4CE0E947601882336
:1013300009F4AFCE0E940000ACCE20E030E040E0E7
:1013400050E4C501B4010E94FA09AE014F5F5F4F3E
:1013500060E471E087FF08C0CE010A960E94270270
:10136000BC018FE491E02BCFCE010A960E942702A8
:10137000FC01892B09F425CF948190789C6094839B
:1013800080829182A282B3821CCF1582148268E28D
:1013900071E0C9010E941D0E32CFE6E5F1E0138233
:1013A000128288EE93E0A0E0B0E084839583A68368
:1013B000B7838AE091E09183808385EC90E0958704
:1013C000848784EC90E09787868780EC90E0918B0F
:1013D000808B81EC90E0938B828B82EC90E0958BFC
:1013E000848B86EC90E0978B868B118E128E138EF9
:1013F000148E08950E943C0A08F481E00895E89450
:1014000009C097FB3EF490958095709561957F4F4C
:101410008F4F9F4F9923A9F0F92F96E9BB279395FA
:10142000F695879577956795B795F111F8CFFAF40A
:10143000BB0F11F460FF1BC06F5F7F4F8F4F9F4F3B
:1014400016C0882311F096E911C0772321F09EE899
:10145000872F762F05C0662371F096E8862F70E0FF
:1014600060E02AF09A95660F771F881FDAF7880FD9
:101470009695879597F90895990F0008550FAA0B2F
:10148000E0E8FEEF16161706E807F907C0F0121697
:101490001306E407F50798F0621B730B840B950B9A
:1014A00039F40A2661F0232B242B252B21F40895EF
:1014B0000A2609F4A140A6958FEF811D811D08958C
:1014C0000E94730A0C94E40A0E94D60A38F00E9423
:1014D000DD0A20F0952311F00C94CD0A0C94D30A68
:1014E00011240C94180B0E94F50A70F3959FC1F318
:1014F000950F50E0551F629FF001729FBB27F00DC2
:10150000B11D639FAA27F00DB11DAA1F649F662716
:10151000B00DA11D661F829F2227B00DA11D621F65
:10152000739FB00DA11D621F839FA00D611D221F1F
:10153000749F3327A00D611D231F849F600D211D03
:10154000822F762F6A2F11249F5750409AF0F1F086
:1015500088234AF0EE0FFF1FBB1F661F771F881FEF
:1015600091505040A9F79E3F510580F00C94CD0A50
:101570000C94180B5F3FE4F3983ED4F3869577956F
:101580006795B795F795E7959F5FC1F7FE2B880F95
:10159000911D9695879597F9089597F99F6780E82B
:1015A00070E060E008959FEF80EC089500240A94B5
:1015B0001616170618060906089500240A9412162E
:1015C0001306140605060895092E0394000C11F461
:1015D000882352F0BB0F40F4BF2B11F460FF04C00E
:1015E0006F5F7F4F8F4F9F4F089557FD9058440F67
:1015F000551F59F05F3F71F04795880F97FB991F72
:1016000061F09F3F79F0879508951216130614062E
:10161000551FF2CF4695F1DF08C0161617061806BB
:10162000991FF1CF86957105610508940895E89496
:10163000BB2766277727CB0197F908952F923F9212
:101640004F925F926F927F928F929F92AF92BF92D2
:10165000CF92DF92EF92FF920F931F93CF93DF937E
:10166000CDB7DEB7CA1BDB0B0FB6F894DEBF0FBEDB
:10167000CDBF09942A88398848885F846E847D8428
:101680008C849B84AA84B984C884DF80EE80FD802A
:101690000C811B81AA81B981CE0FD11D0FB6F894A0
:1016A000DEBF0FBECDBFED0108955058BB27AA275E
:1016B0000E946D0B0C94E40A0E94D60A38F00E9436
:1016C000DD0A20F039F49F3F19F426F40C94D30A74
:1016D0000EF4E095E7FB0C94CD0AE92F0E94F50A81
:1016E00058F3BA17620773078407950720F079F457
:1016F000A6F50C94170B0EF4E0950B2EBA2FA02D27
:101700000B01B90190010C01CA01A0011124FF27AE
:10171000591B99F0593F50F4503E68F11A16F040A9
:10172000A22F232F342F4427585FF3CF46953795A8
:101730002795A795F0405395C9F77EF41F16BA0B6D
:10174000620B730B840BBAF09150A1F0FF0FBB1F1B
:10175000661F771F881FC2F70EC0BA0F621F731F64
:10176000841F48F4879577956795B795F7959E3FC1
:1017700008F0B0CF9395880F08F09927EE0F979552
:10178000879508950E94FD0A88F09F5798F0B92F19
:101790009927B751B0F0E1F0660F771F881F991FA6
:1017A0001AF0BA95C9F714C0B13091F00E94170B26
:1017B000B1E008950C94170B672F782F8827B85F36
:1017C00039F0B93FCCF3869577956795B395D9F7FE
:1017D0003EF490958095709561957F4F8F4F9F4F08
:1017E00008950E943C0A08F48FEF0895AA1BBB1BC2
:1017F00051E107C0AA1FBB1FA617B70710F0A61B11
:10180000B70B881F991F5A95A9F780959095BC0131
:10181000CD010895A1E21A2EAA1BBB1BFD010DC02C
:10182000AA1FBB1FEE1FFF1FA217B307E407F50790
:1018300020F0A21BB30BE40BF50B661F771F881F6C
:10184000991F1A9469F760957095809590959B0102
:10185000AC01BD01CF010895EE0FFF1F0590F4917B
:10186000E02D09940F931F93CF93DF93823091055E
:1018700010F482E090E0E0910C02F0910D0230E073
:1018800020E0B0E0A0E0309799F42115310509F48B
:101890004AC0281B390B24303105D8F58A819B8139
:1018A0006115710589F1FB0193838283FE0111C0EB
:1018B000408151810281138148175907E0F0481790
:1018C000590799F4109761F012960C93129713969A
:1018D0001C933296CF01DF91CF911F910F91089504
:1018E00000930C0210930D02F4CF2115310551F035
:1018F0004217530738F0A901DB019A01BD01DF014E
:10190000F801C1CFEF01F9CF90930D0280930C0243
:10191000CDCFFE01E20FF31F819391932250310945
:1019200039832883D7CF20910A0230910B02232BD1
:1019300041F4209102013091030130930B02209376
:101940000A0220910001309101012115310541F475
:101950002DB73EB74091040150910501241B350B72
:10196000E0910A02F0910B02E217F307A0F42E1B9C
:101970003F0B2817390778F0AC014E5F5F4F2417F3
:10198000350748F04E0F5F1F50930B0240930A0239
:10199000819391939FCFF0E0E0E09CCFCF93DF93D2
:1019A0000097E9F0FC01329713821282A0910C0299
:1019B000B0910D02ED0130E020E01097A1F42081FC
:1019C0003181820F931F20910A0230910B02281758
:1019D000390709F061C0F0930B02E0930A02DF912E
:1019E000CF910895EA01CE17DF07E8F54A815B81C0
:1019F0009E0141155105B1F7E901FB83EA83499145
:101A00005991C40FD51FEC17FD0761F480819181B6
:101A10000296840F951FE9019983888382819381BF
:101A20009B838A83F0E0E0E012968D919C9113975E
:101A30000097B9F52D913C911197CD010296820F37
:101A4000931F20910A0230910B022817390739F6AB
:101A5000309751F510920D0210920C02B0930B02C8
:101A6000A0930A02BCCFD383C28340815181840FEB
:101A7000951FC817D90761F44E5F5F4F8881998120
:101A8000480F591F518340838A819B8193838283AE
:101A90002115310509F0B0CFF0930D02E0930C024F
:101AA0009ECFFD01DC01C0CF13821282D7CFB0E000
:101AB000A0E0EDE5FDE00C94200B8C01009751F4C3
:101AC000CB010E94320C8C01C801CDB7DEB7E0E13A
:101AD0000C943C0BFC01E60FF71F9C0122503109CE
:101AE000E217F30708F49DC0D901CD91DC9111975D
:101AF000C617D70798F0C530D10530F3CE0104974B
:101B00008617970708F3C61BD70B2297C193D1936B
:101B10006D937C93CF010E94CE0CD6CF5B01AC1AA3
:101B2000BD0A4C018C0E9D1EA0910C02B0910D02BD
:101B3000512C412CF12CE12C109731F580910A02A7
:101B400090910B028815990509F05CC0461657065E
:101B500008F058C08091000190910101009741F474
:101B60008DB79EB74091040150910501841B950BE0
:101B7000E817F90708F055C0F0930B02E0930A024A
:101B8000F90171836083A0CF8D919C91119712967A
:101B90006C90129713967C901397A815B90559F578
:101BA0006C0142E0C40ED11CCA14DB0420F1AC016C
:101BB0004A195B09DA011296159780F062827382E6
:101BC00051834083D9016D937C93E114F10471F04A
:101BD000D7011396FC93EE93129776CF22968C0F33
:101BE0009D1FF90191838083F301EFCFF0930D02E4
:101BF000E0930C0269CF4816590608F42C017D01C8
:101C0000D3019ACFCB010E94320C7C01009749F09E
:101C1000AE01B8010E94140EC8010E94CE0C8701CB
:101C200053CF10E000E050CFFB01DC0102C0019077
:101C30000D9241505040D8F70895FB01DC0101900E
:0C1C40000D920020E1F70895F894FFCF0A
:101C4C0000000E02800000000000AC010C01390104
:101C5C00F9016A0148015C012F2F22225C5C6208A9
:101C6C00660C6E0A720D7409005C753030303000F1
:101C7C006E756C6C00747275650066616C736500D2
:101C8C0064697374616E6365003E20343030003CCF
:061C9C002032000D0A00D9
:00000001FF
